{
  "_format": "hh-sol-artifact-1",
  "contractName": "DisputeResolution",
  "sourceName": "contracts/DisputeResolution.sol",
  "abi": [
    {
      "inputs": [],
      "stateMutability": "nonpayable",
      "type": "constructor"
    },
    {
      "inputs": [],
      "name": "admin",
      "outputs": [
        {
          "internalType": "address",
          "name": "",
          "type": "address"
        }
      ],
      "stateMutability": "view",
      "type": "function"
    },
    {
      "inputs": [],
      "name": "disputeCount",
      "outputs": [
        {
          "internalType": "uint256",
          "name": "",
          "type": "uint256"
        }
      ],
      "stateMutability": "view",
      "type": "function"
    },
    {
      "inputs": [
        {
          "internalType": "uint256",
          "name": "",
          "type": "uint256"
        }
      ],
      "name": "disputes",
      "outputs": [
        {
          "internalType": "uint256",
          "name": "productId",
          "type": "uint256"
        },
        {
          "internalType": "address",
          "name": "buyer",
          "type": "address"
        },
        {
          "internalType": "string",
          "name": "reason",
          "type": "string"
        },
        {
          "internalType": "enum DisputeResolution.Status",
          "name": "status",
          "type": "uint8"
        }
      ],
      "stateMutability": "view",
      "type": "function"
    },
    {
      "inputs": [
        {
          "internalType": "uint256",
          "name": "productId",
          "type": "uint256"
        },
        {
          "internalType": "string",
          "name": "reason",
          "type": "string"
        }
      ],
      "name": "fileDispute",
      "outputs": [],
      "stateMutability": "nonpayable",
      "type": "function"
    },
    {
      "inputs": [
        {
          "internalType": "uint256",
          "name": "disputeId",
          "type": "uint256"
        }
      ],
      "name": "getDispute",
      "outputs": [
        {
          "components": [
            {
              "internalType": "uint256",
              "name": "productId",
              "type": "uint256"
            },
            {
              "internalType": "address",
              "name": "buyer",
              "type": "address"
            },
            {
              "internalType": "string",
              "name": "reason",
              "type": "string"
            },
            {
              "internalType": "enum DisputeResolution.Status",
              "name": "status",
              "type": "uint8"
            }
          ],
          "internalType": "struct DisputeResolution.Dispute",
          "name": "",
          "type": "tuple"
        }
      ],
      "stateMutability": "view",
      "type": "function"
    },
    {
      "inputs": [
        {
          "internalType": "uint256",
          "name": "disputeId",
          "type": "uint256"
        }
      ],
      "name": "resolveDispute",
      "outputs": [],
      "stateMutability": "nonpayable",
      "type": "function"
    }
  ],
  "bytecode": "0x608060405234801561001057600080fd5b50336000806101000a81548173ffffffffffffffffffffffffffffffffffffffff021916908373ffffffffffffffffffffffffffffffffffffffff160217905550610eb0806100606000396000f3fe608060405234801561001057600080fd5b50600436106100625760003560e01c8063564a565d146100675780638243af1d1461009a578063a28889e1146100b6578063c2b7b868146100d4578063e3a96cbd146100f0578063f851a44014610120575b600080fd5b610081600480360381019061007c9190610626565b61013e565b60405161009194939291906107aa565b60405180910390f35b6100b460048036038101906100af919061092b565b610223565b005b6100be610338565b6040516100cb9190610987565b60405180910390f35b6100ee60048036038101906100e99190610626565b61033e565b005b61010a60048036038101906101059190610626565b61040e565b6040516101179190610a7c565b60405180910390f35b610128610568565b6040516101359190610a9e565b60405180910390f35b60016020528060005260406000206000915090508060000154908060010160009054906101000a900473ffffffffffffffffffffffffffffffffffffffff169080600201805461018d90610ae8565b80601f01602080910402602001604051908101604052809291908181526020018280546101b990610ae8565b80156102065780601f106101db57610100808354040283529160200191610206565b820191906000526020600020905b8154815290600101906020018083116101e957829003601f168201915b5050505050908060030160009054906101000a900460ff16905084565b60405180608001604052808381526020013373ffffffffffffffffffffffffffffffffffffffff1681526020018281526020016001600281111561026a57610269610733565b5b8152506001600060025481526020019081526020016000206000820151816000015560208201518160010160006101000a81548173ffffffffffffffffffffffffffffffffffffffff021916908373ffffffffffffffffffffffffffffffffffffffff16021790555060408201518160020190816102e89190610cc5565b5060608201518160030160006101000a81548160ff0219169083600281111561031457610313610733565b5b02179055509050506002600081548092919061032f90610dc6565b91905055505050565b60025481565b60008054906101000a900473ffffffffffffffffffffffffffffffffffffffff1673ffffffffffffffffffffffffffffffffffffffff163373ffffffffffffffffffffffffffffffffffffffff16146103cc576040517f08c379a00000000000000000000000000000000000000000000000000000000081526004016103c390610e5a565b60405180910390fd5b60026001600083815260200190815260200160002060030160006101000a81548160ff0219169083600281111561040657610405610733565b5b021790555050565b61041661058c565b60016000838152602001908152602001600020604051806080016040529081600082015481526020016001820160009054906101000a900473ffffffffffffffffffffffffffffffffffffffff1673ffffffffffffffffffffffffffffffffffffffff1673ffffffffffffffffffffffffffffffffffffffff1681526020016002820180546104a490610ae8565b80601f01602080910402602001604051908101604052809291908181526020018280546104d090610ae8565b801561051d5780601f106104f25761010080835404028352916020019161051d565b820191906000526020600020905b81548152906001019060200180831161050057829003601f168201915b505050505081526020016003820160009054906101000a900460ff16600281111561054b5761054a610733565b5b600281111561055d5761055c610733565b5b815250509050919050565b60008054906101000a900473ffffffffffffffffffffffffffffffffffffffff1681565b604051806080016040528060008152602001600073ffffffffffffffffffffffffffffffffffffffff16815260200160608152602001600060028111156105d6576105d5610733565b5b81525090565b6000604051905090565b600080fd5b600080fd5b6000819050919050565b610603816105f0565b811461060e57600080fd5b50565b600081359050610620816105fa565b92915050565b60006020828403121561063c5761063b6105e6565b5b600061064a84828501610611565b91505092915050565b61065c816105f0565b82525050565b600073ffffffffffffffffffffffffffffffffffffffff82169050919050565b600061068d82610662565b9050919050565b61069d81610682565b82525050565b600081519050919050565b600082825260208201905092915050565b60005b838110156106dd5780820151818401526020810190506106c2565b60008484015250505050565b6000601f19601f8301169050919050565b6000610705826106a3565b61070f81856106ae565b935061071f8185602086016106bf565b610728816106e9565b840191505092915050565b7f4e487b7100000000000000000000000000000000000000000000000000000000600052602160045260246000fd5b6003811061077357610772610733565b5b50565b600081905061078482610762565b919050565b600061079482610776565b9050919050565b6107a481610789565b82525050565b60006080820190506107bf6000830187610653565b6107cc6020830186610694565b81810360408301526107de81856106fa565b90506107ed606083018461079b565b95945050505050565b600080fd5b600080fd5b7f4e487b7100000000000000000000000000000000000000000000000000000000600052604160045260246000fd5b610838826106e9565b810181811067ffffffffffffffff8211171561085757610856610800565b5b80604052505050565b600061086a6105dc565b9050610876828261082f565b919050565b600067ffffffffffffffff82111561089657610895610800565b5b61089f826106e9565b9050602081019050919050565b82818337600083830152505050565b60006108ce6108c98461087b565b610860565b9050828152602081018484840111156108ea576108e96107fb565b5b6108f58482856108ac565b509392505050565b600082601f830112610912576109116107f6565b5b81356109228482602086016108bb565b91505092915050565b60008060408385031215610942576109416105e6565b5b600061095085828601610611565b925050602083013567ffffffffffffffff811115610971576109706105eb565b5b61097d858286016108fd565b9150509250929050565b600060208201905061099c6000830184610653565b92915050565b6109ab816105f0565b82525050565b6109ba81610682565b82525050565b600082825260208201905092915050565b60006109dc826106a3565b6109e681856109c0565b93506109f68185602086016106bf565b6109ff816106e9565b840191505092915050565b610a1381610789565b82525050565b6000608083016000830151610a3160008601826109a2565b506020830151610a4460208601826109b1565b5060408301518482036040860152610a5c82826109d1565b9150506060830151610a716060860182610a0a565b508091505092915050565b60006020820190508181036000830152610a968184610a19565b905092915050565b6000602082019050610ab36000830184610694565b92915050565b7f4e487b7100000000000000000000000000000000000000000000000000000000600052602260045260246000fd5b60006002820490506001821680610b0057607f821691505b602082108103610b1357610b12610ab9565b5b50919050565b60008190508160005260206000209050919050565b60006020601f8301049050919050565b600082821b905092915050565b600060088302610b7b7fffffffffffffffffffffffffffffffffffffffffffffffffffffffffffffffff82610b3e565b610b858683610b3e565b95508019841693508086168417925050509392505050565b6000819050919050565b6000610bc2610bbd610bb8846105f0565b610b9d565b6105f0565b9050919050565b6000819050919050565b610bdc83610ba7565b610bf0610be882610bc9565b848454610b4b565b825550505050565b600090565b610c05610bf8565b610c10818484610bd3565b505050565b5b81811015610c3457610c29600082610bfd565b600181019050610c16565b5050565b601f821115610c7957610c4a81610b19565b610c5384610b2e565b81016020851015610c62578190505b610c76610c6e85610b2e565b830182610c15565b50505b505050565b600082821c905092915050565b6000610c9c60001984600802610c7e565b1980831691505092915050565b6000610cb58383610c8b565b9150826002028217905092915050565b610cce826106a3565b67ffffffffffffffff811115610ce757610ce6610800565b5b610cf18254610ae8565b610cfc828285610c38565b600060209050601f831160018114610d2f5760008415610d1d578287015190505b610d278582610ca9565b865550610d8f565b601f198416610d3d86610b19565b60005b82811015610d6557848901518255600182019150602085019450602081019050610d40565b86831015610d825784890151610d7e601f891682610c8b565b8355505b6001600288020188555050505b505050505050565b7f4e487b7100000000000000000000000000000000000000000000000000000000600052601160045260246000fd5b6000610dd1826105f0565b91507fffffffffffffffffffffffffffffffffffffffffffffffffffffffffffffffff8203610e0357610e02610d97565b5b600182019050919050565b7f4e6f742061646d696e0000000000000000000000000000000000000000000000600082015250565b6000610e446009836106ae565b9150610e4f82610e0e565b602082019050919050565b60006020820190508181036000830152610e7381610e37565b905091905056fea264697066735822122070ebb3f1e6725fc720a3561268e580ee2f24f98c2e6e9b27d54bc0bb2ca12e0364736f6c63430008140033",
  "linkReferences": {},
  "deployedLinkReferences": {}
}