{
  "_format": "hh-sol-artifact-1",
  "contractName": "Marketplace",
  "sourceName": "contracts/Marketplace.sol",
  "abi": [
    {
      "inputs": [
        {
          "internalType": "address",
          "name": "registryAddress",
          "type": "address"
        },
        {
          "internalType": "address",
          "name": "productManagerAddress",
          "type": "address"
        }
      ],
      "stateMutability": "nonpayable",
      "type": "constructor"
    },
    {
      "anonymous": false,
      "inputs": [
        {
          "indexed": false,
          "internalType": "address",
          "name": "buyer",
          "type": "address"
        },
        {
          "indexed": false,
          "internalType": "uint256",
          "name": "productId",
          "type": "uint256"
        }
      ],
      "name": "Purchase",
      "type": "event"
    },
    {
      "inputs": [],
      "name": "productManager",
      "outputs": [
        {
          "internalType": "contract ProductManager",
          "name": "",
          "type": "address"
        }
      ],
      "stateMutability": "view",
      "type": "function"
    },
    {
      "inputs": [
        {
          "internalType": "uint256",
          "name": "productId",
          "type": "uint256"
        }
      ],
      "name": "purchaseProduct",
      "outputs": [],
      "stateMutability": "payable",
      "type": "function"
    },
    {
      "inputs": [],
      "name": "registry",
      "outputs": [
        {
          "internalType": "contract OEMRegistry",
          "name": "",
          "type": "address"
        }
      ],
      "stateMutability": "view",
      "type": "function"
    }
  ],
  "bytecode": "0x608060405234801561001057600080fd5b50604051610b8f380380610b8f8339818101604052810190610032919061011d565b816000806101000a81548173ffffffffffffffffffffffffffffffffffffffff021916908373ffffffffffffffffffffffffffffffffffffffff16021790555080600160006101000a81548173ffffffffffffffffffffffffffffffffffffffff021916908373ffffffffffffffffffffffffffffffffffffffff160217905550505061015d565b600080fd5b600073ffffffffffffffffffffffffffffffffffffffff82169050919050565b60006100ea826100bf565b9050919050565b6100fa816100df565b811461010557600080fd5b50565b600081519050610117816100f1565b92915050565b60008060408385031215610134576101336100ba565b5b600061014285828601610108565b925050602061015385828601610108565b9150509250929050565b610a238061016c6000396000f3fe6080604052600436106100345760003560e01c806338e76a03146100395780637b10399914610055578063f426306f14610080575b600080fd5b610053600480360381019061004e91906103d4565b6100ab565b005b34801561006157600080fd5b5061006a610340565b6040516100779190610480565b60405180910390f35b34801561008c57600080fd5b50610095610364565b6040516100a291906104bc565b60405180910390f35b60008054906101000a900473ffffffffffffffffffffffffffffffffffffffff1673ffffffffffffffffffffffffffffffffffffffff16632a55feec336040518263ffffffff1660e01b815260040161010491906104f8565b602060405180830381865afa158015610121573d6000803e3d6000fd5b505050506040513d601f19601f82011682018060405250810190610145919061054b565b610184576040517f08c379a000000000000000000000000000000000000000000000000000000000815260040161017b906105d5565b60405180910390fd5b6000600160009054906101000a900473ffffffffffffffffffffffffffffffffffffffff1673ffffffffffffffffffffffffffffffffffffffff1663b9db15b4836040518263ffffffff1660e01b81526004016101e19190610604565b600060405180830381865afa1580156101fe573d6000803e3d6000fd5b505050506040513d6000823e3d601f19601f8201168201806040525081019061022791906108a3565b90508060a0015161026d576040517f08c379a000000000000000000000000000000000000000000000000000000000815260040161026490610938565b60405180910390fd5b80606001513410156102b4576040517f08c379a00000000000000000000000000000000000000000000000000000000081526004016102ab906109a4565b60405180910390fd5b806080015173ffffffffffffffffffffffffffffffffffffffff166108fc82606001519081150290604051600060405180830381858888f19350505050158015610302573d6000803e3d6000fd5b507f2499a5330ab0979cc612135e7883ebc3cd5c9f7a8508f042540c34723348f63233836040516103349291906109c4565b60405180910390a15050565b60008054906101000a900473ffffffffffffffffffffffffffffffffffffffff1681565b600160009054906101000a900473ffffffffffffffffffffffffffffffffffffffff1681565b6000604051905090565b600080fd5b600080fd5b6000819050919050565b6103b18161039e565b81146103bc57600080fd5b50565b6000813590506103ce816103a8565b92915050565b6000602082840312156103ea576103e9610394565b5b60006103f8848285016103bf565b91505092915050565b600073ffffffffffffffffffffffffffffffffffffffff82169050919050565b6000819050919050565b600061044661044161043c84610401565b610421565b610401565b9050919050565b60006104588261042b565b9050919050565b600061046a8261044d565b9050919050565b61047a8161045f565b82525050565b60006020820190506104956000830184610471565b92915050565b60006104a68261044d565b9050919050565b6104b68161049b565b82525050565b60006020820190506104d160008301846104ad565b92915050565b60006104e282610401565b9050919050565b6104f2816104d7565b82525050565b600060208201905061050d60008301846104e9565b92915050565b60008115159050919050565b61052881610513565b811461053357600080fd5b50565b6000815190506105458161051f565b92915050565b60006020828403121561056157610560610394565b5b600061056f84828501610536565b91505092915050565b600082825260208201905092915050565b7f4e6f742061206275796572000000000000000000000000000000000000000000600082015250565b60006105bf600b83610578565b91506105ca82610589565b602082019050919050565b600060208201905081810360008301526105ee816105b2565b9050919050565b6105fe8161039e565b82525050565b600060208201905061061960008301846105f5565b92915050565b600080fd5b6000601f19601f8301169050919050565b7f4e487b7100000000000000000000000000000000000000000000000000000000600052604160045260246000fd5b61066d82610624565b810181811067ffffffffffffffff8211171561068c5761068b610635565b5b80604052505050565b600061069f61038a565b90506106ab8282610664565b919050565b600080fd5b6000815190506106c4816103a8565b92915050565b600080fd5b600080fd5b600067ffffffffffffffff8211156106ef576106ee610635565b5b6106f882610624565b9050602081019050919050565b60005b83811015610723578082015181840152602081019050610708565b60008484015250505050565b600061074261073d846106d4565b610695565b90508281526020810184848401111561075e5761075d6106cf565b5b610769848285610705565b509392505050565b600082601f830112610786576107856106ca565b5b815161079684826020860161072f565b91505092915050565b6107a8816104d7565b81146107b357600080fd5b50565b6000815190506107c58161079f565b92915050565b600060c082840312156107e1576107e061061f565b5b6107eb60c0610695565b905060006107fb848285016106b5565b600083015250602082015167ffffffffffffffff81111561081f5761081e6106b0565b5b61082b84828501610771565b602083015250604082015167ffffffffffffffff81111561084f5761084e6106b0565b5b61085b84828501610771565b604083015250606061086f848285016106b5565b6060830152506080610883848285016107b6565b60808301525060a061089784828501610536565b60a08301525092915050565b6000602082840312156108b9576108b8610394565b5b600082015167ffffffffffffffff8111156108d7576108d6610399565b5b6108e3848285016107cb565b91505092915050565b7f50726f64756374206e6f7420617661696c61626c650000000000000000000000600082015250565b6000610922601583610578565b915061092d826108ec565b602082019050919050565b6000602082019050818103600083015261095181610915565b9050919050565b7f496e73756666696369656e74207061796d656e74000000000000000000000000600082015250565b600061098e601483610578565b915061099982610958565b602082019050919050565b600060208201905081810360008301526109bd81610981565b9050919050565b60006040820190506109d960008301856104e9565b6109e660208301846105f5565b939250505056fea2646970667358221220b28a6bc605e5299af22da8c3f7fbacc8b2b00443fc045fe5007d9aa9bb1e7a9164736f6c63430008140033",
  "linkReferences": {},
  "deployedLinkReferences": {}
}