{
  "_format": "hh-sol-artifact-1",
  "contractName": "OEMRegistry",
  "sourceName": "contracts/OEMRegistry.sol",
  "abi": [
    {
      "inputs": [],
      "stateMutability": "nonpayable",
      "type": "constructor"
    },
    {
      "inputs": [],
      "name": "admin",
      "outputs": [
        {
          "internalType": "address",
          "name": "",
          "type": "address"
        }
      ],
      "stateMutability": "view",
      "type": "function"
    },
    {
      "inputs": [
        {
          "internalType": "address",
          "name": "user",
          "type": "address"
        }
      ],
      "name": "getUserRole",
      "outputs": [
        {
          "internalType": "enum OEMRegistry.Role",
          "name": "",
          "type": "uint8"
        }
      ],
      "stateMutability": "view",
      "type": "function"
    },
    {
      "inputs": [
        {
          "internalType": "address",
          "name": "user",
          "type": "address"
        }
      ],
      "name": "isBuyer",
      "outputs": [
        {
          "internalType": "bool",
          "name": "",
          "type": "bool"
        }
      ],
      "stateMutability": "view",
      "type": "function"
    },
    {
      "inputs": [
        {
          "internalType": "address",
          "name": "user",
          "type": "address"
        }
      ],
      "name": "isOEM",
      "outputs": [
        {
          "internalType": "bool",
          "name": "",
          "type": "bool"
        }
      ],
      "stateMutability": "view",
      "type": "function"
    },
    {
      "inputs": [
        {
          "internalType": "address",
          "name": "user",
          "type": "address"
        },
        {
          "internalType": "enum OEMRegistry.Role",
          "name": "role",
          "type": "uint8"
        }
      ],
      "name": "registerUser",
      "outputs": [],
      "stateMutability": "nonpayable",
      "type": "function"
    },
    {
      "inputs": [
        {
          "internalType": "address",
          "name": "",
          "type": "address"
        }
      ],
      "name": "users",
      "outputs": [
        {
          "internalType": "enum OEMRegistry.Role",
          "name": "",
          "type": "uint8"
        }
      ],
      "stateMutability": "view",
      "type": "function"
    }
  ],
  "bytecode": "0x608060405234801561001057600080fd5b50336000806101000a81548173ffffffffffffffffffffffffffffffffffffffff021916908373ffffffffffffffffffffffffffffffffffffffff160217905550610687806100606000396000f3fe608060405234801561001057600080fd5b50600436106100625760003560e01c806327820851146100675780632a55feec146100975780639e9fa097146100c7578063a87430ba146100e3578063aa9d20de14610113578063f851a44014610143575b600080fd5b610081600480360381019061007c9190610450565b610161565b60405161008e91906104f4565b60405180910390f35b6100b160048036038101906100ac9190610450565b6101b7565b6040516100be919061052a565b60405180910390f35b6100e160048036038101906100dc919061056a565b610233565b005b6100fd60048036038101906100f89190610450565b61032c565b60405161010a91906104f4565b60405180910390f35b61012d60048036038101906101289190610450565b61034c565b60405161013a919061052a565b60405180910390f35b61014b6103c9565b60405161015891906105b9565b60405180910390f35b6000600160008373ffffffffffffffffffffffffffffffffffffffff1673ffffffffffffffffffffffffffffffffffffffff16815260200190815260200160002060009054906101000a900460ff169050919050565b60006002808111156101cc576101cb61047d565b5b600160008473ffffffffffffffffffffffffffffffffffffffff1673ffffffffffffffffffffffffffffffffffffffff16815260200190815260200160002060009054906101000a900460ff16600281111561022b5761022a61047d565b5b149050919050565b60008054906101000a900473ffffffffffffffffffffffffffffffffffffffff1673ffffffffffffffffffffffffffffffffffffffff163373ffffffffffffffffffffffffffffffffffffffff16146102c1576040517f08c379a00000000000000000000000000000000000000000000000000000000081526004016102b890610631565b60405180910390fd5b80600160008473ffffffffffffffffffffffffffffffffffffffff1673ffffffffffffffffffffffffffffffffffffffff16815260200190815260200160002060006101000a81548160ff021916908360028111156103235761032261047d565b5b02179055505050565b60016020528060005260406000206000915054906101000a900460ff1681565b6000600160028111156103625761036161047d565b5b600160008473ffffffffffffffffffffffffffffffffffffffff1673ffffffffffffffffffffffffffffffffffffffff16815260200190815260200160002060009054906101000a900460ff1660028111156103c1576103c061047d565b5b149050919050565b60008054906101000a900473ffffffffffffffffffffffffffffffffffffffff1681565b600080fd5b600073ffffffffffffffffffffffffffffffffffffffff82169050919050565b600061041d826103f2565b9050919050565b61042d81610412565b811461043857600080fd5b50565b60008135905061044a81610424565b92915050565b600060208284031215610466576104656103ed565b5b60006104748482850161043b565b91505092915050565b7f4e487b7100000000000000000000000000000000000000000000000000000000600052602160045260246000fd5b600381106104bd576104bc61047d565b5b50565b60008190506104ce826104ac565b919050565b60006104de826104c0565b9050919050565b6104ee816104d3565b82525050565b600060208201905061050960008301846104e5565b92915050565b60008115159050919050565b6105248161050f565b82525050565b600060208201905061053f600083018461051b565b92915050565b6003811061055257600080fd5b50565b60008135905061056481610545565b92915050565b60008060408385031215610581576105806103ed565b5b600061058f8582860161043b565b92505060206105a085828601610555565b9150509250929050565b6105b381610412565b82525050565b60006020820190506105ce60008301846105aa565b92915050565b600082825260208201905092915050565b7f4e6f742061646d696e0000000000000000000000000000000000000000000000600082015250565b600061061b6009836105d4565b9150610626826105e5565b602082019050919050565b6000602082019050818103600083015261064a8161060e565b905091905056fea26469706673582212204ae26bdb8dddcdbf99c19bdb55d26794d60f7093cad1f2475fbe755e67a10bb864736f6c63430008140033",
  "linkReferences": {},
  "deployedLinkReferences": {}
}