{
  "_format": "hh-sol-artifact-1",
  "contractName": "ProductManager",
  "sourceName": "contracts/ProductManager.sol",
  "abi": [
    {
      "inputs": [
        {
          "internalType": "address",
          "name": "registryAddress",
          "type": "address"
        }
      ],
      "stateMutability": "nonpayable",
      "type": "constructor"
    },
    {
      "inputs": [
        {
          "internalType": "string",
          "name": "name",
          "type": "string"
        },
        {
          "internalType": "string",
          "name": "description",
          "type": "string"
        },
        {
          "internalType": "uint256",
          "name": "price",
          "type": "uint256"
        }
      ],
      "name": "addProduct",
      "outputs": [],
      "stateMutability": "nonpayable",
      "type": "function"
    },
    {
      "inputs": [
        {
          "internalType": "uint256",
          "name": "id",
          "type": "uint256"
        }
      ],
      "name": "getProduct",
      "outputs": [
        {
          "components": [
            {
              "internalType": "uint256",
              "name": "id",
              "type": "uint256"
            },
            {
              "internalType": "string",
              "name": "name",
              "type": "string"
            },
            {
              "internalType": "string",
              "name": "description",
              "type": "string"
            },
            {
              "internalType": "uint256",
              "name": "price",
              "type": "uint256"
            },
            {
              "internalType": "address",
              "name": "seller",
              "type": "address"
            },
            {
              "internalType": "bool",
              "name": "available",
              "type": "bool"
            }
          ],
          "internalType": "struct ProductManager.Product",
          "name": "",
          "type": "tuple"
        }
      ],
      "stateMutability": "view",
      "type": "function"
    },
    {
      "inputs": [],
      "name": "productCounter",
      "outputs": [
        {
          "internalType": "uint256",
          "name": "",
          "type": "uint256"
        }
      ],
      "stateMutability": "view",
      "type": "function"
    },
    {
      "inputs": [
        {
          "internalType": "uint256",
          "name": "",
          "type": "uint256"
        }
      ],
      "name": "products",
      "outputs": [
        {
          "internalType": "uint256",
          "name": "id",
          "type": "uint256"
        },
        {
          "internalType": "string",
          "name": "name",
          "type": "string"
        },
        {
          "internalType": "string",
          "name": "description",
          "type": "string"
        },
        {
          "internalType": "uint256",
          "name": "price",
          "type": "uint256"
        },
        {
          "internalType": "address",
          "name": "seller",
          "type": "address"
        },
        {
          "internalType": "bool",
          "name": "available",
          "type": "bool"
        }
      ],
      "stateMutability": "view",
      "type": "function"
    },
    {
      "inputs": [],
      "name": "registry",
      "outputs": [
        {
          "internalType": "contract OEMRegistry",
          "name": "",
          "type": "address"
        }
      ],
      "stateMutability": "view",
      "type": "function"
    }
  ],
  "bytecode": "0x608060405260006001553480156200001657600080fd5b50604051620011cc380380620011cc83398181016040528101906200003c9190620000ed565b806000806101000a81548173ffffffffffffffffffffffffffffffffffffffff021916908373ffffffffffffffffffffffffffffffffffffffff160217905550506200011f565b600080fd5b600073ffffffffffffffffffffffffffffffffffffffff82169050919050565b6000620000b58262000088565b9050919050565b620000c781620000a8565b8114620000d357600080fd5b50565b600081519050620000e781620000bc565b92915050565b60006020828403121562000106576200010562000083565b5b60006200011684828501620000d6565b91505092915050565b61109d806200012f6000396000f3fe608060405234801561001057600080fd5b50600436106100575760003560e01c80631f16653b1461005c5780637acc0b201461007a5780637b103999146100af578063b9db15b4146100cd578063f28ea1c1146100fd575b600080fd5b610064610119565b60405161007191906106f6565b60405180910390f35b610094600480360381019061008f9190610751565b61011f565b6040516100a69695949392919061086a565b60405180910390f35b6100b7610298565b6040516100c49190610938565b60405180910390f35b6100e760048036038101906100e29190610751565b6102bc565b6040516100f49190610a5a565b60405180910390f35b61011760048036038101906101129190610bb1565b610492565b005b60015481565b600260205280600052604060002060009150905080600001549080600101805461014890610c6b565b80601f016020809104026020016040519081016040528092919081815260200182805461017490610c6b565b80156101c15780601f10610196576101008083540402835291602001916101c1565b820191906000526020600020905b8154815290600101906020018083116101a457829003601f168201915b5050505050908060020180546101d690610c6b565b80601f016020809104026020016040519081016040528092919081815260200182805461020290610c6b565b801561024f5780601f106102245761010080835404028352916020019161024f565b820191906000526020600020905b81548152906001019060200180831161023257829003601f168201915b5050505050908060030154908060040160009054906101000a900473ffffffffffffffffffffffffffffffffffffffff16908060040160149054906101000a900460ff16905086565b60008054906101000a900473ffffffffffffffffffffffffffffffffffffffff1681565b6102c461068f565b600260008381526020019081526020016000206040518060c0016040529081600082015481526020016001820180546102fc90610c6b565b80601f016020809104026020016040519081016040528092919081815260200182805461032890610c6b565b80156103755780601f1061034a57610100808354040283529160200191610375565b820191906000526020600020905b81548152906001019060200180831161035857829003601f168201915b5050505050815260200160028201805461038e90610c6b565b80601f01602080910402602001604051908101604052809291908181526020018280546103ba90610c6b565b80156104075780601f106103dc57610100808354040283529160200191610407565b820191906000526020600020905b8154815290600101906020018083116103ea57829003601f168201915b50505050508152602001600382015481526020016004820160009054906101000a900473ffffffffffffffffffffffffffffffffffffffff1673ffffffffffffffffffffffffffffffffffffffff1673ffffffffffffffffffffffffffffffffffffffff1681526020016004820160149054906101000a900460ff1615151515815250509050919050565b60008054906101000a900473ffffffffffffffffffffffffffffffffffffffff1673ffffffffffffffffffffffffffffffffffffffff1663aa9d20de336040518263ffffffff1660e01b81526004016104eb9190610c9c565b602060405180830381865afa158015610508573d6000803e3d6000fd5b505050506040513d601f19601f8201168201806040525081019061052c9190610ce3565b61056b576040517f08c379a000000000000000000000000000000000000000000000000000000000815260040161056290610d5c565b60405180910390fd5b6040518060c0016040528060015481526020018481526020018381526020018281526020013373ffffffffffffffffffffffffffffffffffffffff168152602001600115158152506002600060015481526020019081526020016000206000820151816000015560208201518160010190816105e79190610f1e565b5060408201518160020190816105fd9190610f1e565b506060820151816003015560808201518160040160006101000a81548173ffffffffffffffffffffffffffffffffffffffff021916908373ffffffffffffffffffffffffffffffffffffffff16021790555060a08201518160040160146101000a81548160ff021916908315150217905550905050600160008154809291906106859061101f565b9190505550505050565b6040518060c0016040528060008152602001606081526020016060815260200160008152602001600073ffffffffffffffffffffffffffffffffffffffff1681526020016000151581525090565b6000819050919050565b6106f0816106dd565b82525050565b600060208201905061070b60008301846106e7565b92915050565b6000604051905090565b600080fd5b600080fd5b61072e816106dd565b811461073957600080fd5b50565b60008135905061074b81610725565b92915050565b6000602082840312156107675761076661071b565b5b60006107758482850161073c565b91505092915050565b600081519050919050565b600082825260208201905092915050565b60005b838110156107b857808201518184015260208101905061079d565b60008484015250505050565b6000601f19601f8301169050919050565b60006107e08261077e565b6107ea8185610789565b93506107fa81856020860161079a565b610803816107c4565b840191505092915050565b600073ffffffffffffffffffffffffffffffffffffffff82169050919050565b60006108398261080e565b9050919050565b6108498161082e565b82525050565b60008115159050919050565b6108648161084f565b82525050565b600060c08201905061087f60008301896106e7565b818103602083015261089181886107d5565b905081810360408301526108a581876107d5565b90506108b460608301866106e7565b6108c16080830185610840565b6108ce60a083018461085b565b979650505050505050565b6000819050919050565b60006108fe6108f96108f48461080e565b6108d9565b61080e565b9050919050565b6000610910826108e3565b9050919050565b600061092282610905565b9050919050565b61093281610917565b82525050565b600060208201905061094d6000830184610929565b92915050565b61095c816106dd565b82525050565b600082825260208201905092915050565b600061097e8261077e565b6109888185610962565b935061099881856020860161079a565b6109a1816107c4565b840191505092915050565b6109b58161082e565b82525050565b6109c48161084f565b82525050565b600060c0830160008301516109e26000860182610953565b50602083015184820360208601526109fa8282610973565b91505060408301518482036040860152610a148282610973565b9150506060830151610a296060860182610953565b506080830151610a3c60808601826109ac565b5060a0830151610a4f60a08601826109bb565b508091505092915050565b60006020820190508181036000830152610a7481846109ca565b905092915050565b600080fd5b600080fd5b7f4e487b7100000000000000000000000000000000000000000000000000000000600052604160045260246000fd5b610abe826107c4565b810181811067ffffffffffffffff82111715610add57610adc610a86565b5b80604052505050565b6000610af0610711565b9050610afc8282610ab5565b919050565b600067ffffffffffffffff821115610b1c57610b1b610a86565b5b610b25826107c4565b9050602081019050919050565b82818337600083830152505050565b6000610b54610b4f84610b01565b610ae6565b905082815260208101848484011115610b7057610b6f610a81565b5b610b7b848285610b32565b509392505050565b600082601f830112610b9857610b97610a7c565b5b8135610ba8848260208601610b41565b91505092915050565b600080600060608486031215610bca57610bc961071b565b5b600084013567ffffffffffffffff811115610be857610be7610720565b5b610bf486828701610b83565b935050602084013567ffffffffffffffff811115610c1557610c14610720565b5b610c2186828701610b83565b9250506040610c328682870161073c565b9150509250925092565b7f4e487b7100000000000000000000000000000000000000000000000000000000600052602260045260246000fd5b60006002820490506001821680610c8357607f821691505b602082108103610c9657610c95610c3c565b5b50919050565b6000602082019050610cb16000830184610840565b92915050565b610cc08161084f565b8114610ccb57600080fd5b50565b600081519050610cdd81610cb7565b92915050565b600060208284031215610cf957610cf861071b565b5b6000610d0784828501610cce565b91505092915050565b7f4e6f7420616e204f454d00000000000000000000000000000000000000000000600082015250565b6000610d46600a83610789565b9150610d5182610d10565b602082019050919050565b60006020820190508181036000830152610d7581610d39565b9050919050565b60008190508160005260206000209050919050565b60006020601f8301049050919050565b600082821b905092915050565b600060088302610dde7fffffffffffffffffffffffffffffffffffffffffffffffffffffffffffffffff82610da1565b610de88683610da1565b95508019841693508086168417925050509392505050565b6000610e1b610e16610e11846106dd565b6108d9565b6106dd565b9050919050565b6000819050919050565b610e3583610e00565b610e49610e4182610e22565b848454610dae565b825550505050565b600090565b610e5e610e51565b610e69818484610e2c565b505050565b5b81811015610e8d57610e82600082610e56565b600181019050610e6f565b5050565b601f821115610ed257610ea381610d7c565b610eac84610d91565b81016020851015610ebb578190505b610ecf610ec785610d91565b830182610e6e565b50505b505050565b600082821c905092915050565b6000610ef560001984600802610ed7565b1980831691505092915050565b6000610f0e8383610ee4565b9150826002028217905092915050565b610f278261077e565b67ffffffffffffffff811115610f4057610f3f610a86565b5b610f4a8254610c6b565b610f55828285610e91565b600060209050601f831160018114610f885760008415610f76578287015190505b610f808582610f02565b865550610fe8565b601f198416610f9686610d7c565b60005b82811015610fbe57848901518255600182019150602085019450602081019050610f99565b86831015610fdb5784890151610fd7601f891682610ee4565b8355505b6001600288020188555050505b505050505050565b7f4e487b7100000000000000000000000000000000000000000000000000000000600052601160045260246000fd5b600061102a826106dd565b91507fffffffffffffffffffffffffffffffffffffffffffffffffffffffffffffffff820361105c5761105b610ff0565b5b60018201905091905056fea2646970667358221220a9f2db98073988ddf1918e6fcd2eeab7fe9df821d3f1ac376ab01b932ce7e83364736f6c63430008140033",
  "linkReferences": {},
  "deployedLinkReferences": {}
}