{
  "_format": "hh-sol-artifact-1",
  "contractName": "Marketplace",
  "sourceName": "contracts/Marketplace.sol",
  "abi": [
    {
      "inputs": [
        {
          "internalType": "address",
          "name": "registryAddress",
          "type": "address"
        },
        {
          "internalType": "address",
          "name": "productManagerAddress",
          "type": "address"
        }
      ],
      "stateMutability": "nonpayable",
      "type": "constructor"
    },
    {
      "anonymous": false,
      "inputs": [
        {
          "indexed": false,
          "internalType": "address",
          "name": "buyer",
          "type": "address"
        },
        {
          "indexed": false,
          "internalType": "uint256",
          "name": "productId",
          "type": "uint256"
        }
      ],
      "name": "Purchase",
      "type": "event"
    },
    {
      "inputs": [],
      "name": "productManager",
      "outputs": [
        {
          "internalType": "contract ProductManager",
          "name": "",
          "type": "address"
        }
      ],
      "stateMutability": "view",
      "type": "function"
    },
    {
      "inputs": [
        {
          "internalType": "uint256",
          "name": "productId",
          "type": "uint256"
        }
      ],
      "name": "purchaseProduct",
      "outputs": [],
      "stateMutability": "payable",
      "type": "function"
    },
    {
      "inputs": [],
      "name": "registry",
      "outputs": [
        {
          "internalType": "contract OEMRegistry",
          "name": "",
          "type": "address"
        }
      ],
      "stateMutability": "view",
      "type": "function"
    }
  ],
  "bytecode": "0x608060405234801561001057600080fd5b50604051610c1c380380610c1c8339818101604052810190610032919061011d565b816000806101000a81548173ffffffffffffffffffffffffffffffffffffffff021916908373ffffffffffffffffffffffffffffffffffffffff16021790555080600160006101000a81548173ffffffffffffffffffffffffffffffffffffffff021916908373ffffffffffffffffffffffffffffffffffffffff160217905550505061015d565b600080fd5b600073ffffffffffffffffffffffffffffffffffffffff82169050919050565b60006100ea826100bf565b9050919050565b6100fa816100df565b811461010557600080fd5b50565b600081519050610117816100f1565b92915050565b60008060408385031215610134576101336100ba565b5b600061014285828601610108565b925050602061015385828601610108565b9150509250929050565b610ab08061016c6000396000f3fe6080604052600436106100345760003560e01c806338e76a03146100395780637b10399914610055578063f426306f14610080575b600080fd5b610053600480360381019061004e9190610461565b6100ab565b005b34801561006157600080fd5b5061006a6103cd565b604051610077919061050d565b60405180910390f35b34801561008c57600080fd5b506100956103f1565b6040516100a29190610549565b60405180910390f35b60008054906101000a900473ffffffffffffffffffffffffffffffffffffffff1673ffffffffffffffffffffffffffffffffffffffff16632a55feec336040518263ffffffff1660e01b81526004016101049190610585565b602060405180830381865afa158015610121573d6000803e3d6000fd5b505050506040513d601f19601f8201168201806040525081019061014591906105d8565b610184576040517f08c379a000000000000000000000000000000000000000000000000000000000815260040161017b90610662565b60405180910390fd5b6000600160009054906101000a900473ffffffffffffffffffffffffffffffffffffffff1673ffffffffffffffffffffffffffffffffffffffff1663b9db15b4836040518263ffffffff1660e01b81526004016101e19190610691565b600060405180830381865afa1580156101fe573d6000803e3d6000fd5b505050506040513d6000823e3d601f19601f820116820180604052508101906102279190610930565b90508060a0015161026d576040517f08c379a0000000000000000000000000000000000000000000000000000000008152600401610264906109c5565b60405180910390fd5b80606001513410156102b4576040517f08c379a00000000000000000000000000000000000000000000000000000000081526004016102ab90610a31565b60405180910390fd5b806080015173ffffffffffffffffffffffffffffffffffffffff166108fc82606001519081150290604051600060405180830381858888f19350505050158015610302573d6000803e3d6000fd5b50600160009054906101000a900473ffffffffffffffffffffffffffffffffffffffff1673ffffffffffffffffffffffffffffffffffffffff16638449de7b836040518263ffffffff1660e01b815260040161035e9190610691565b600060405180830381600087803b15801561037857600080fd5b505af115801561038c573d6000803e3d6000fd5b505050507f2499a5330ab0979cc612135e7883ebc3cd5c9f7a8508f042540c34723348f63233836040516103c1929190610a51565b60405180910390a15050565b60008054906101000a900473ffffffffffffffffffffffffffffffffffffffff1681565b600160009054906101000a900473ffffffffffffffffffffffffffffffffffffffff1681565b6000604051905090565b600080fd5b600080fd5b6000819050919050565b61043e8161042b565b811461044957600080fd5b50565b60008135905061045b81610435565b92915050565b60006020828403121561047757610476610421565b5b60006104858482850161044c565b91505092915050565b600073ffffffffffffffffffffffffffffffffffffffff82169050919050565b6000819050919050565b60006104d36104ce6104c98461048e565b6104ae565b61048e565b9050919050565b60006104e5826104b8565b9050919050565b60006104f7826104da565b9050919050565b610507816104ec565b82525050565b600060208201905061052260008301846104fe565b92915050565b6000610533826104da565b9050919050565b61054381610528565b82525050565b600060208201905061055e600083018461053a565b92915050565b600061056f8261048e565b9050919050565b61057f81610564565b82525050565b600060208201905061059a6000830184610576565b92915050565b60008115159050919050565b6105b5816105a0565b81146105c057600080fd5b50565b6000815190506105d2816105ac565b92915050565b6000602082840312156105ee576105ed610421565b5b60006105fc848285016105c3565b91505092915050565b600082825260208201905092915050565b7f4e6f742061206275796572000000000000000000000000000000000000000000600082015250565b600061064c600b83610605565b915061065782610616565b602082019050919050565b6000602082019050818103600083015261067b8161063f565b9050919050565b61068b8161042b565b82525050565b60006020820190506106a66000830184610682565b92915050565b600080fd5b6000601f19601f8301169050919050565b7f4e487b7100000000000000000000000000000000000000000000000000000000600052604160045260246000fd5b6106fa826106b1565b810181811067ffffffffffffffff82111715610719576107186106c2565b5b80604052505050565b600061072c610417565b905061073882826106f1565b919050565b600080fd5b60008151905061075181610435565b92915050565b600080fd5b600080fd5b600067ffffffffffffffff82111561077c5761077b6106c2565b5b610785826106b1565b9050602081019050919050565b60005b838110156107b0578082015181840152602081019050610795565b60008484015250505050565b60006107cf6107ca84610761565b610722565b9050828152602081018484840111156107eb576107ea61075c565b5b6107f6848285610792565b509392505050565b600082601f83011261081357610812610757565b5b81516108238482602086016107bc565b91505092915050565b61083581610564565b811461084057600080fd5b50565b6000815190506108528161082c565b92915050565b600060c0828403121561086e5761086d6106ac565b5b61087860c0610722565b9050600061088884828501610742565b600083015250602082015167ffffffffffffffff8111156108ac576108ab61073d565b5b6108b8848285016107fe565b602083015250604082015167ffffffffffffffff8111156108dc576108db61073d565b5b6108e8848285016107fe565b60408301525060606108fc84828501610742565b606083015250608061091084828501610843565b60808301525060a0610924848285016105c3565b60a08301525092915050565b60006020828403121561094657610945610421565b5b600082015167ffffffffffffffff81111561096457610963610426565b5b61097084828501610858565b91505092915050565b7f50726f64756374206e6f7420617661696c61626c650000000000000000000000600082015250565b60006109af601583610605565b91506109ba82610979565b602082019050919050565b600060208201905081810360008301526109de816109a2565b9050919050565b7f496e73756666696369656e74207061796d656e74000000000000000000000000600082015250565b6000610a1b601483610605565b9150610a26826109e5565b602082019050919050565b60006020820190508181036000830152610a4a81610a0e565b9050919050565b6000604082019050610a666000830185610576565b610a736020830184610682565b939250505056fea26469706673582212207e031b47d9ecfb28c2c8784e8584c1549f50732275ef4fc96f9518fa036005fa64736f6c63430008140033",
  "linkReferences": {},
  "deployedLinkReferences": {}
}