{
  "_format": "hh-sol-artifact-1",
  "contractName": "ProductManager",
  "sourceName": "contracts/ProductManager.sol",
  "abi": [
    {
      "inputs": [
        {
          "internalType": "address",
          "name": "registryAddress",
          "type": "address"
        }
      ],
      "stateMutability": "nonpayable",
      "type": "constructor"
    },
    {
      "anonymous": false,
      "inputs": [
        {
          "indexed": false,
          "internalType": "uint256",
          "name": "id",
          "type": "uint256"
        },
        {
          "indexed": false,
          "internalType": "string",
          "name": "name",
          "type": "string"
        },
        {
          "indexed": false,
          "internalType": "uint256",
          "name": "price",
          "type": "uint256"
        },
        {
          "indexed": false,
          "internalType": "address",
          "name": "seller",
          "type": "address"
        }
      ],
      "name": "ProductAdded",
      "type": "event"
    },
    {
      "anonymous": false,
      "inputs": [
        {
          "indexed": false,
          "internalType": "uint256",
          "name": "id",
          "type": "uint256"
        },
        {
          "indexed": false,
          "internalType": "bool",
          "name": "available",
          "type": "bool"
        }
      ],
      "name": "ProductUpdated",
      "type": "event"
    },
    {
      "inputs": [
        {
          "internalType": "string",
          "name": "name",
          "type": "string"
        },
        {
          "internalType": "string",
          "name": "description",
          "type": "string"
        },
        {
          "internalType": "uint256",
          "name": "price",
          "type": "uint256"
        }
      ],
      "name": "addProduct",
      "outputs": [
        {
          "internalType": "uint256",
          "name": "",
          "type": "uint256"
        }
      ],
      "stateMutability": "nonpayable",
      "type": "function"
    },
    {
      "inputs": [
        {
          "internalType": "uint256",
          "name": "id",
          "type": "uint256"
        }
      ],
      "name": "getProduct",
      "outputs": [
        {
          "components": [
            {
              "internalType": "uint256",
              "name": "id",
              "type": "uint256"
            },
            {
              "internalType": "string",
              "name": "name",
              "type": "string"
            },
            {
              "internalType": "string",
              "name": "description",
              "type": "string"
            },
            {
              "internalType": "uint256",
              "name": "price",
              "type": "uint256"
            },
            {
              "internalType": "address",
              "name": "seller",
              "type": "address"
            },
            {
              "internalType": "bool",
              "name": "available",
              "type": "bool"
            }
          ],
          "internalType": "struct ProductManager.Product",
          "name": "",
          "type": "tuple"
        }
      ],
      "stateMutability": "view",
      "type": "function"
    },
    {
      "inputs": [
        {
          "internalType": "uint256",
          "name": "id",
          "type": "uint256"
        }
      ],
      "name": "markProductUnavailable",
      "outputs": [],
      "stateMutability": "nonpayable",
      "type": "function"
    },
    {
      "inputs": [],
      "name": "marketplace",
      "outputs": [
        {
          "internalType": "address",
          "name": "",
          "type": "address"
        }
      ],
      "stateMutability": "view",
      "type": "function"
    },
    {
      "inputs": [],
      "name": "productCounter",
      "outputs": [
        {
          "internalType": "uint256",
          "name": "",
          "type": "uint256"
        }
      ],
      "stateMutability": "view",
      "type": "function"
    },
    {
      "inputs": [],
      "name": "registry",
      "outputs": [
        {
          "internalType": "contract OEMRegistry",
          "name": "",
          "type": "address"
        }
      ],
      "stateMutability": "view",
      "type": "function"
    },
    {
      "inputs": [
        {
          "internalType": "address",
          "name": "marketplaceAddress",
          "type": "address"
        }
      ],
      "name": "setMarketplace",
      "outputs": [],
      "stateMutability": "nonpayable",
      "type": "function"
    }
  ],
  "bytecode": "0x60806040523480156200001157600080fd5b5060405162001508380380620015088339818101604052810190620000379190620000f0565b806000806101000a81548173ffffffffffffffffffffffffffffffffffffffff021916908373ffffffffffffffffffffffffffffffffffffffff16021790555060006002819055505062000122565b600080fd5b600073ffffffffffffffffffffffffffffffffffffffff82169050919050565b6000620000b8826200008b565b9050919050565b620000ca81620000ab565b8114620000d657600080fd5b50565b600081519050620000ea81620000bf565b92915050565b60006020828403121562000109576200010862000086565b5b60006200011984828501620000d9565b91505092915050565b6113d680620001326000396000f3fe608060405234801561001057600080fd5b506004361061007d5760003560e01c80638449de7b1161005b5780638449de7b146100da578063abc8c7af146100f6578063b9db15b414610114578063f28ea1c1146101445761007d565b80631f16653b1461008257806373ad6c2d146100a05780637b103999146100bc575b600080fd5b61008a610174565b604051610097919061088c565b60405180910390f35b6100ba60048036038101906100b59190610919565b61017a565b005b6100c46101be565b6040516100d191906109a5565b60405180910390f35b6100f460048036038101906100ef91906109ec565b6101e2565b005b6100fe610392565b60405161010b9190610a28565b60405180910390f35b61012e600480360381019061012991906109ec565b6103b8565b60405161013b9190610b9c565b60405180910390f35b61015e60048036038101906101599190610cf3565b6105df565b60405161016b919061088c565b60405180910390f35b60025481565b80600160006101000a81548173ffffffffffffffffffffffffffffffffffffffff021916908373ffffffffffffffffffffffffffffffffffffffff16021790555050565b60008054906101000a900473ffffffffffffffffffffffffffffffffffffffff1681565b600160009054906101000a900473ffffffffffffffffffffffffffffffffffffffff1673ffffffffffffffffffffffffffffffffffffffff163373ffffffffffffffffffffffffffffffffffffffff1614610272576040517f08c379a000000000000000000000000000000000000000000000000000000000815260040161026990610ddb565b60405180910390fd5b60008111801561028457506002548111155b6102c3576040517f08c379a00000000000000000000000000000000000000000000000000000000081526004016102ba90610e47565b60405180910390fd5b6003600082815260200190815260200160002060040160149054906101000a900460ff16610326576040517f08c379a000000000000000000000000000000000000000000000000000000000815260040161031d90610eb3565b60405180910390fd5b60006003600083815260200190815260200160002060040160146101000a81548160ff0219169083151502179055507fa5857ae566a6234e040b9127174392cb4d6ee980201b91747efe92bb6f98feed816000604051610387929190610ee2565b60405180910390a150565b600160009054906101000a900473ffffffffffffffffffffffffffffffffffffffff1681565b6103c0610825565b6000821180156103d257506002548211155b610411576040517f08c379a000000000000000000000000000000000000000000000000000000000815260040161040890610e47565b60405180910390fd5b600360008381526020019081526020016000206040518060c00160405290816000820154815260200160018201805461044990610f3a565b80601f016020809104026020016040519081016040528092919081815260200182805461047590610f3a565b80156104c25780601f10610497576101008083540402835291602001916104c2565b820191906000526020600020905b8154815290600101906020018083116104a557829003601f168201915b505050505081526020016002820180546104db90610f3a565b80601f016020809104026020016040519081016040528092919081815260200182805461050790610f3a565b80156105545780601f1061052957610100808354040283529160200191610554565b820191906000526020600020905b81548152906001019060200180831161053757829003601f168201915b50505050508152602001600382015481526020016004820160009054906101000a900473ffffffffffffffffffffffffffffffffffffffff1673ffffffffffffffffffffffffffffffffffffffff1673ffffffffffffffffffffffffffffffffffffffff1681526020016004820160149054906101000a900460ff1615151515815250509050919050565b60008060009054906101000a900473ffffffffffffffffffffffffffffffffffffffff1673ffffffffffffffffffffffffffffffffffffffff1663aa9d20de336040518263ffffffff1660e01b815260040161063b9190610a28565b602060405180830381865afa158015610658573d6000803e3d6000fd5b505050506040513d601f19601f8201168201806040525081019061067c9190610f97565b6106bb576040517f08c379a00000000000000000000000000000000000000000000000000000000081526004016106b290611010565b60405180910390fd5b600260008154809291906106ce9061105f565b91905055506040518060c0016040528060025481526020018581526020018481526020018381526020013373ffffffffffffffffffffffffffffffffffffffff1681526020016001151581525060036000600254815260200190815260200160002060008201518160000155602082015181600101908161074f9190611249565b5060408201518160020190816107659190611249565b506060820151816003015560808201518160040160006101000a81548173ffffffffffffffffffffffffffffffffffffffff021916908373ffffffffffffffffffffffffffffffffffffffff16021790555060a08201518160040160146101000a81548160ff0219169083151502179055509050507f52402cafb2ecec722b103e8f203f83362148c168659dc96678c2c6850d12dd9f6002548584336040516108119493929190611354565b60405180910390a160025490509392505050565b6040518060c0016040528060008152602001606081526020016060815260200160008152602001600073ffffffffffffffffffffffffffffffffffffffff1681526020016000151581525090565b6000819050919050565b61088681610873565b82525050565b60006020820190506108a1600083018461087d565b92915050565b6000604051905090565b600080fd5b600080fd5b600073ffffffffffffffffffffffffffffffffffffffff82169050919050565b60006108e6826108bb565b9050919050565b6108f6816108db565b811461090157600080fd5b50565b600081359050610913816108ed565b92915050565b60006020828403121561092f5761092e6108b1565b5b600061093d84828501610904565b91505092915050565b6000819050919050565b600061096b610966610961846108bb565b610946565b6108bb565b9050919050565b600061097d82610950565b9050919050565b600061098f82610972565b9050919050565b61099f81610984565b82525050565b60006020820190506109ba6000830184610996565b92915050565b6109c981610873565b81146109d457600080fd5b50565b6000813590506109e6816109c0565b92915050565b600060208284031215610a0257610a016108b1565b5b6000610a10848285016109d7565b91505092915050565b610a22816108db565b82525050565b6000602082019050610a3d6000830184610a19565b92915050565b610a4c81610873565b82525050565b600081519050919050565b600082825260208201905092915050565b60005b83811015610a8c578082015181840152602081019050610a71565b60008484015250505050565b6000601f19601f8301169050919050565b6000610ab482610a52565b610abe8185610a5d565b9350610ace818560208601610a6e565b610ad781610a98565b840191505092915050565b610aeb816108db565b82525050565b60008115159050919050565b610b0681610af1565b82525050565b600060c083016000830151610b246000860182610a43565b5060208301518482036020860152610b3c8282610aa9565b91505060408301518482036040860152610b568282610aa9565b9150506060830151610b6b6060860182610a43565b506080830151610b7e6080860182610ae2565b5060a0830151610b9160a0860182610afd565b508091505092915050565b60006020820190508181036000830152610bb68184610b0c565b905092915050565b600080fd5b600080fd5b7f4e487b7100000000000000000000000000000000000000000000000000000000600052604160045260246000fd5b610c0082610a98565b810181811067ffffffffffffffff82111715610c1f57610c1e610bc8565b5b80604052505050565b6000610c326108a7565b9050610c3e8282610bf7565b919050565b600067ffffffffffffffff821115610c5e57610c5d610bc8565b5b610c6782610a98565b9050602081019050919050565b82818337600083830152505050565b6000610c96610c9184610c43565b610c28565b905082815260208101848484011115610cb257610cb1610bc3565b5b610cbd848285610c74565b509392505050565b600082601f830112610cda57610cd9610bbe565b5b8135610cea848260208601610c83565b91505092915050565b600080600060608486031215610d0c57610d0b6108b1565b5b600084013567ffffffffffffffff811115610d2a57610d296108b6565b5b610d3686828701610cc5565b935050602084013567ffffffffffffffff811115610d5757610d566108b6565b5b610d6386828701610cc5565b9250506040610d74868287016109d7565b9150509250925092565b600082825260208201905092915050565b7f4f6e6c79206d61726b6574706c6163652063616e2063616c6c00000000000000600082015250565b6000610dc5601983610d7e565b9150610dd082610d8f565b602082019050919050565b60006020820190508181036000830152610df481610db8565b9050919050565b7f496e76616c69642070726f647563742049440000000000000000000000000000600082015250565b6000610e31601283610d7e565b9150610e3c82610dfb565b602082019050919050565b60006020820190508181036000830152610e6081610e24565b9050919050565b7f50726f6475637420616c726561647920756e617661696c61626c650000000000600082015250565b6000610e9d601b83610d7e565b9150610ea882610e67565b602082019050919050565b60006020820190508181036000830152610ecc81610e90565b9050919050565b610edc81610af1565b82525050565b6000604082019050610ef7600083018561087d565b610f046020830184610ed3565b9392505050565b7f4e487b7100000000000000000000000000000000000000000000000000000000600052602260045260246000fd5b60006002820490506001821680610f5257607f821691505b602082108103610f6557610f64610f0b565b5b50919050565b610f7481610af1565b8114610f7f57600080fd5b50565b600081519050610f9181610f6b565b92915050565b600060208284031215610fad57610fac6108b1565b5b6000610fbb84828501610f82565b91505092915050565b7f4e6f7420616e204f454d00000000000000000000000000000000000000000000600082015250565b6000610ffa600a83610d7e565b915061100582610fc4565b602082019050919050565b6000602082019050818103600083015261102981610fed565b9050919050565b7f4e487b7100000000000000000000000000000000000000000000000000000000600052601160045260246000fd5b600061106a82610873565b91507fffffffffffffffffffffffffffffffffffffffffffffffffffffffffffffffff820361109c5761109b611030565b5b600182019050919050565b60008190508160005260206000209050919050565b60006020601f8301049050919050565b600082821b905092915050565b6000600883026111097fffffffffffffffffffffffffffffffffffffffffffffffffffffffffffffffff826110cc565b61111386836110cc565b95508019841693508086168417925050509392505050565b600061114661114161113c84610873565b610946565b610873565b9050919050565b6000819050919050565b6111608361112b565b61117461116c8261114d565b8484546110d9565b825550505050565b600090565b61118961117c565b611194818484611157565b505050565b5b818110156111b8576111ad600082611181565b60018101905061119a565b5050565b601f8211156111fd576111ce816110a7565b6111d7846110bc565b810160208510156111e6578190505b6111fa6111f2856110bc565b830182611199565b50505b505050565b600082821c905092915050565b600061122060001984600802611202565b1980831691505092915050565b6000611239838361120f565b9150826002028217905092915050565b61125282610a52565b67ffffffffffffffff81111561126b5761126a610bc8565b5b6112758254610f3a565b6112808282856111bc565b600060209050601f8311600181146112b357600084156112a1578287015190505b6112ab858261122d565b865550611313565b601f1984166112c1866110a7565b60005b828110156112e9578489015182556001820191506020850194506020810190506112c4565b868310156113065784890151611302601f89168261120f565b8355505b6001600288020188555050505b505050505050565b600061132682610a52565b6113308185610d7e565b9350611340818560208601610a6e565b61134981610a98565b840191505092915050565b6000608082019050611369600083018761087d565b818103602083015261137b818661131b565b905061138a604083018561087d565b6113976060830184610a19565b9594505050505056fea26469706673582212200fd269739c1a1e73e8829f5ce9cd7b43199d4187dfd2a33fb38be7abbe34d5fe64736f6c63430008140033",
  "linkReferences": {},
  "deployedLinkReferences": {}
}